{
  "contractName": "Donations",
  "abi": [
    {
      "inputs": [
        {
          "internalType": "address",
          "name": "_tokenAddress",
          "type": "address"
        }
      ],
      "stateMutability": "nonpayable",
      "type": "constructor"
    },
    {
      "anonymous": false,
      "inputs": [
        {
          "indexed": false,
          "internalType": "address",
          "name": "",
          "type": "address"
        },
        {
          "indexed": false,
          "internalType": "uint256",
          "name": "",
          "type": "uint256"
        },
        {
          "indexed": false,
          "internalType": "uint256",
          "name": "",
          "type": "uint256"
        }
      ],
      "name": "newDonation",
      "type": "event"
    },
    {
      "inputs": [],
      "name": "owner",
      "outputs": [
        {
          "internalType": "address",
          "name": "",
          "type": "address"
        }
      ],
      "stateMutability": "view",
      "type": "function",
      "constant": true
    },
    {
      "inputs": [
        {
          "internalType": "uint256",
          "name": "_donationAmount",
          "type": "uint256"
        }
      ],
      "name": "donate",
      "outputs": [],
      "stateMutability": "nonpayable",
      "type": "function"
    }
  ],
  "bytecode": "0x6080604052336000806101000a81548173ffffffffffffffffffffffffffffffffffffffff021916908373ffffffffffffffffffffffffffffffffffffffff16021790555034801561005057600080fd5b506040516104a73803806104a7833981810160405281019061007291906100ce565b80600160006101000a81548173ffffffffffffffffffffffffffffffffffffffff021916908373ffffffffffffffffffffffffffffffffffffffff16021790555050610140565b6000815190506100c881610129565b92915050565b6000602082840312156100e057600080fd5b60006100ee848285016100b9565b91505092915050565b600061010282610109565b9050919050565b600073ffffffffffffffffffffffffffffffffffffffff82169050919050565b610132816100f7565b811461013d57600080fd5b50565b6103588061014f6000396000f3fe608060405234801561001057600080fd5b50600436106100365760003560e01c80638da5cb5b1461003b578063f14faf6f14610059575b600080fd5b610043610075565b6040516100509190610223565b60405180910390f35b610073600480360381019061006e91906101dc565b610099565b005b60008054906101000a900473ffffffffffffffffffffffffffffffffffffffff1681565b600160009054906101000a900473ffffffffffffffffffffffffffffffffffffffff1673ffffffffffffffffffffffffffffffffffffffff166323b872dd3330846040518463ffffffff1660e01b81526004016100f89392919061023e565b602060405180830381600087803b15801561011257600080fd5b505af1158015610126573d6000803e3d6000fd5b505050506040513d601f19601f8201168201806040525081019061014a91906101b3565b507f1f02136406024dfb41150f6fc242a88f308fc724b756f67668745eb83fb0add633824260405161017e93929190610275565b60405180910390a150565b600081519050610198816102f4565b92915050565b6000813590506101ad8161030b565b92915050565b6000602082840312156101c557600080fd5b60006101d384828501610189565b91505092915050565b6000602082840312156101ee57600080fd5b60006101fc8482850161019e565b91505092915050565b61020e816102ac565b82525050565b61021d816102ea565b82525050565b60006020820190506102386000830184610205565b92915050565b60006060820190506102536000830186610205565b6102606020830185610205565b61026d6040830184610214565b949350505050565b600060608201905061028a6000830186610205565b6102976020830185610214565b6102a46040830184610214565b949350505050565b60006102b7826102ca565b9050919050565b60008115159050919050565b600073ffffffffffffffffffffffffffffffffffffffff82169050919050565b6000819050919050565b6102fd816102be565b811461030857600080fd5b50565b610314816102ea565b811461031f57600080fd5b5056fea26469706673582212200aafbdd485e2dd613859cbdd20b3b66239fef3df2eb651279da70ce1da0124fa64736f6c63430008000033",
  "immutableReferences": {},
  "source": "// SPDX-License-Identifier: MIT\npragma solidity >=0.4.22 <0.9.0;\n\nimport \"../node_modules/@openzeppelin/contracts/token/ERC20/ERC20.sol\";\nimport \"../node_modules/@openzeppelin/contracts/token/ERC20/IERC20.sol\";\n\ncontract Donations {\n    address public owner = msg.sender;\n    IERC20 token;\n\n    event newDonation(address, uint256, uint256);\n\n    constructor(address _tokenAddress) {\n        token = IERC20(_tokenAddress);\n    }\n\n    function donate(uint256 _donationAmount) external {\n        //first approve this contract on script\n        token.transferFrom(msg.sender, address(this), _donationAmount);\n        emit newDonation(msg.sender, _donationAmount, block.timestamp);\n    }\n}\n",
  "sourcePath": "/Volumes/APPLE HDD/reactprojects/socket-server/contracts/Donations.sol",
  "compiler": {
    "name": "solc",
    "version": "0.8.0+commit.c7dfd78e.Emscripten.clang"
  },
  "schemaVersion": "3.4.3",
  "updatedAt": "2021-09-28T21:08:05.460Z",
  "networkType": "ethereum",
  "devdoc": {
    "kind": "dev",
    "methods": {},
    "version": 1
  },
  "userdoc": {
    "kind": "user",
    "methods": {},
    "version": 1
  }
}